:100000000C942A000C943F000C943F000C943F0089
:100010000C943F000C943F000C943F000C943F0064
:100020000C943F000C9448000C943F000C943F004B
:100030000C943F000C943F000C943F000C943F0044
:100040000C943F000C943F000C943F000C943F0034
:100050000C943F0011241FBECFE5D8E0DEBFCDBF1A
:1000600010E0A0E6B0E0E0E2F4E002C005900D92FE
:10007000A237B107D9F70E94B6000C940E020C9477
:1000800000001FBC81E08EBD84E089BF7894089594
:100090001F920F920FB60F921124AF92BF92CF9280
:1000A000DF92EF92FF920F931F932F933F934F9303
:1000B0005F936F937F938F939F93AF93BF93EF93D0
:1000C000FF9320916A0030916B0040916C00509139
:1000D0006D0060916E0070916F0080917000909142
:1000E00071004F5F5F4F6F4F7F4F8F4F9F4FA12C1E
:1000F0000F2EF0E6BF2EF02D0F2EF7EDCF2EF02DA8
:100100000F2EFDE1DF2EF02D0F2EF4E1EF2EF02D5E
:10011000F12C00E010E00E949B0120936A003093D4
:100120006B0040936C0050936D0060936E00709371
:100130006F008093700090937100FF91EF91BF91D9
:10014000AF919F918F917F916F915F914F913F916F
:100150002F911F910F91FF90EF90DF90CF90BF9064
:10016000AF900F900FBE0F901F9018958FEF87BB29
:1001700081BB12BA0E94410020916A0030916B004D
:1001800040916C0050916D0060916E0070916F0015
:100190008091700090917100A12C0F2EF4EABF2E77
:1001A000F02D0F2EF3E9CF2EF02D0F2EF6EDDF2ED2
:1001B000F02DE12CF12C00E010E00E949D01822F37
:1001C000932FCAE0D0E0BE010E948701FB01E05AF4
:1001D000FF4F208128BB21E022BBE9EFF0E03197FF
:1001E000F1F700C00000FC01E05AFF4F808188BB9E
:1001F00082E082BB89EF90E00197F1F700C0000038
:1002000020916A0030916B0040916C0050916D001C
:1002100060916E0070916F008091700090917100FC
:100220000F2EF7E8BF2EF02D0F2EF3E0DF2EF02D6E
:100230000E949D010F2EFCE3AF2EF02DB12CC12C9E
:10024000D12C0E949B01822F932FBE010E94870117
:10025000FB01E05AFF4F208128BB24E022BBE9EFDD
:10026000F0E03197F1F700C00000FC01E05AFF4FC9
:10027000808188BB88E082BB89EF90E00197F1F72D
:1002800000C0000020916A0030916B0040916C002A
:1002900050916D0060916E0070916F0080917000C0
:1002A000909171006894AA24A6F80F2EF2E4BF2E54
:1002B000F02D0F2EFFE0CF2EF02D0E949D010F2E6E
:1002C000FCE3AF2EF02DB12CC12C0E949B01822F9C
:1002D000932FBE010E948701FB01E05AFF4F20814E
:1002E00028BB20E122BBE9EFF0E03197F1F700C035
:1002F0000000FC01E05AFF4F808188BB80E282BB96
:1003000089EF90E00197F1F700C0000035CF97FB2F
:10031000072E16F4009407D077FD09D00E94FA0149
:1003200007FC05D03EF4909581959F4F08957095F8
:1003300061957F4F0895689401C0E8948F929F92D1
:10034000CF93DF930E94A901DF91CF919F908F906F
:10035000089588249924F401E401B0E49F93AA2726
:100360009A158B049C04ED05FE05CF05D007A10767
:1003700098F4AD2FDC2FCF2FFE2FE92D982C892E4E
:10038000982F872F762F652F542F432F322F222718
:10039000B85031F7BF9127C01B2EBF91BB27220F4A
:1003A000331F441F551F661F771F881F991F881C06
:1003B000991CEE1FFF1FCC1FDD1FAA1FBB1F8A1435
:1003C0009B04EC05FD05CE05DF05A007B10748F04D
:1003D0008A189B08EC09FD09CE09DF09A00BB10BB7
:1003E00021601A94E1F62EF49401AF01BE01CD0113
:1003F000000C0895AA1BBB1B51E107C0AA1FBB1F1D
:10040000A617B70710F0A61BB70B881F991F5A95A0
:10041000A9F780959095BC01CD010895F894FFCF80
:10042000C073242113090863000100EFD0D1040038
:020430000000CA
:00000001FF
